{
  "contractName": "Helloworld",
  "abi": [
    {
      "inputs": [
        {
          "internalType": "string",
          "name": "_message",
          "type": "string"
        }
      ],
      "stateMutability": "nonpayable",
      "type": "constructor"
    },
    {
      "inputs": [],
      "name": "message",
      "outputs": [
        {
          "internalType": "string",
          "name": "",
          "type": "string"
        }
      ],
      "stateMutability": "view",
      "type": "function",
      "constant": true
    },
    {
      "inputs": [],
      "name": "hello",
      "outputs": [
        {
          "internalType": "string",
          "name": "",
          "type": "string"
        }
      ],
      "stateMutability": "view",
      "type": "function",
      "constant": true
    },
    {
      "inputs": [
        {
          "internalType": "string",
          "name": "_message",
          "type": "string"
        }
      ],
      "name": "setMessage",
      "outputs": [],
      "stateMutability": "payable",
      "type": "function",
      "payable": true
    }
  ],
  "bytecode": "0x60806040523480156200001157600080fd5b50604051620009c3380380620009c38339818101604052810190620000379190620001ba565b80600090805190602001906200004f92919062000098565b5033600160006101000a81548173ffffffffffffffffffffffffffffffffffffffff021916908373ffffffffffffffffffffffffffffffffffffffff160217905550506200036f565b828054620000a69062000294565b90600052602060002090601f016020900481019282620000ca576000855562000116565b82601f10620000e557805160ff191683800117855562000116565b8280016001018555821562000116579182015b8281111562000115578251825591602001919060010190620000f8565b5b50905062000125919062000129565b5090565b5b80821115620001445760008160009055506001016200012a565b5090565b60006200015f620001598462000228565b620001ff565b9050828152602081018484840111156200017857600080fd5b620001858482856200025e565b509392505050565b600082601f8301126200019f57600080fd5b8151620001b184826020860162000148565b91505092915050565b600060208284031215620001cd57600080fd5b600082015167ffffffffffffffff811115620001e857600080fd5b620001f6848285016200018d565b91505092915050565b60006200020b6200021e565b9050620002198282620002ca565b919050565b6000604051905090565b600067ffffffffffffffff8211156200024657620002456200032f565b5b62000251826200035e565b9050602081019050919050565b60005b838110156200027e57808201518184015260208101905062000261565b838111156200028e576000848401525b50505050565b60006002820490506001821680620002ad57607f821691505b60208210811415620002c457620002c362000300565b5b50919050565b620002d5826200035e565b810181811067ffffffffffffffff82111715620002f757620002f66200032f565b5b80604052505050565b7f4e487b7100000000000000000000000000000000000000000000000000000000600052602260045260246000fd5b7f4e487b7100000000000000000000000000000000000000000000000000000000600052604160045260246000fd5b6000601f19601f8301169050919050565b610644806200037f6000396000f3fe6080604052600436106100345760003560e01c806319ff1d2114610039578063368b877214610064578063e21f37ce14610080575b600080fd5b34801561004557600080fd5b5061004e6100ab565b60405161005b919061041d565b60405180910390f35b61007e60048036038101906100799190610380565b61013d565b005b34801561008c57600080fd5b506100956101e7565b6040516100a2919061041d565b60405180910390f35b6060600080546100ba90610513565b80601f01602080910402602001604051908101604052809291908181526020018280546100e690610513565b80156101335780601f1061010857610100808354040283529160200191610133565b820191906000526020600020905b81548152906001019060200180831161011657829003601f168201915b5050505050905090565b600160009054906101000a900473ffffffffffffffffffffffffffffffffffffffff1673ffffffffffffffffffffffffffffffffffffffff163373ffffffffffffffffffffffffffffffffffffffff16146101cd576040517f08c379a00000000000000000000000000000000000000000000000000000000081526004016101c49061043f565b60405180910390fd5b80600090805190602001906101e3929190610275565b5050565b600080546101f490610513565b80601f016020809104026020016040519081016040528092919081815260200182805461022090610513565b801561026d5780601f106102425761010080835404028352916020019161026d565b820191906000526020600020905b81548152906001019060200180831161025057829003601f168201915b505050505081565b82805461028190610513565b90600052602060002090601f0160209004810192826102a357600085556102ea565b82601f106102bc57805160ff19168380011785556102ea565b828001600101855582156102ea579182015b828111156102e95782518255916020019190600101906102ce565b5b5090506102f791906102fb565b5090565b5b808211156103145760008160009055506001016102fc565b5090565b600061032b61032684610484565b61045f565b90508281526020810184848401111561034357600080fd5b61034e8482856104d1565b509392505050565b600082601f83011261036757600080fd5b8135610377848260208601610318565b91505092915050565b60006020828403121561039257600080fd5b600082013567ffffffffffffffff8111156103ac57600080fd5b6103b884828501610356565b91505092915050565b60006103cc826104b5565b6103d681856104c0565b93506103e68185602086016104e0565b6103ef816105d4565b840191505092915050565b60006104076015836104c0565b9150610412826105e5565b602082019050919050565b6000602082019050818103600083015261043781846103c1565b905092915050565b60006020820190508181036000830152610458816103fa565b9050919050565b600061046961047a565b90506104758282610545565b919050565b6000604051905090565b600067ffffffffffffffff82111561049f5761049e6105a5565b5b6104a8826105d4565b9050602081019050919050565b600081519050919050565b600082825260208201905092915050565b82818337600083830152505050565b60005b838110156104fe5780820151818401526020810190506104e3565b8381111561050d576000848401525b50505050565b6000600282049050600182168061052b57607f821691505b6020821081141561053f5761053e610576565b5b50919050565b61054e826105d4565b810181811067ffffffffffffffff8211171561056d5761056c6105a5565b5b80604052505050565b7f4e487b7100000000000000000000000000000000000000000000000000000000600052602260045260246000fd5b7f4e487b7100000000000000000000000000000000000000000000000000000000600052604160045260246000fd5b6000601f19601f8301169050919050565b7f596f7520617265206e6f7420746865206f776e6572000000000000000000000060008201525056fea264697066735822122091d8cd6ab953e683a61bde666a73c987ddf183320f584a6eef94fa700c7ff2fa64736f6c63430008040033",
  "immutableReferences": {},
  "source": "// SPDX-License-Identifier: MIT\npragma solidity ^0.8.4;\n\ncontract Helloworld {\n\n    string public message;\n    address owner;\n\n    constructor(string memory _message) {\n        message = _message;\n        owner = msg.sender;\n    }\n\n    function hello() public view returns (string memory) {\n        return message;\n    }\n\n    function setMessage(string memory _message) public payable {\n        // require(msg.value > 1 ether, 'You must pay at least 1 ETH');\n        require(msg.sender == owner, 'You are not the owner');\n        message = _message;\n    }\n}\n",
  "sourcePath": "/Users/aleschwartzman/Documents/truffle_tutorial/truffle_tutorial/contracts/Helloworld.sol",
  "compiler": {
    "name": "solc",
    "version": "0.8.4+commit.c7e474f2.Emscripten.clang"
  },
  "schemaVersion": "3.4.7",
  "updatedAt": "2022-06-09T21:42:10.799Z",
  "networkType": "ethereum",
  "devdoc": {
    "kind": "dev",
    "methods": {},
    "version": 1
  },
  "userdoc": {
    "kind": "user",
    "methods": {},
    "version": 1
  }
}